{
  "_format": "hh-sol-artifact-1",
  "contractName": "AdidasOriginals",
  "sourceName": "contracts/AdidasOriginalsFake.sol",
  "abi": [
    {
      "inputs": [
        {
          "internalType": "string",
          "name": "_name",
          "type": "string"
        },
        {
          "internalType": "string",
          "name": "_symbol",
          "type": "string"
        },
        {
          "internalType": "string",
          "name": "_uri",
          "type": "string"
        },
        {
          "internalType": "address[]",
          "name": "payees",
          "type": "address[]"
        },
        {
          "internalType": "uint256[]",
          "name": "shares_",
          "type": "uint256[]"
        }
      ],
      "stateMutability": "nonpayable",
      "type": "constructor"
    },
    {
      "anonymous": false,
      "inputs": [
        {
          "indexed": true,
          "internalType": "address",
          "name": "account",
          "type": "address"
        },
        {
          "indexed": true,
          "internalType": "address",
          "name": "operator",
          "type": "address"
        },
        {
          "indexed": false,
          "internalType": "bool",
          "name": "approved",
          "type": "bool"
        }
      ],
      "name": "ApprovalForAll",
      "type": "event"
    },
    {
      "anonymous": false,
      "inputs": [
        {
          "indexed": true,
          "internalType": "address",
          "name": "previousOwner",
          "type": "address"
        },
        {
          "indexed": true,
          "internalType": "address",
          "name": "newOwner",
          "type": "address"
        }
      ],
      "name": "OwnershipTransferred",
      "type": "event"
    },
    {
      "anonymous": false,
      "inputs": [
        {
          "indexed": false,
          "internalType": "address",
          "name": "account",
          "type": "address"
        }
      ],
      "name": "Paused",
      "type": "event"
    },
    {
      "anonymous": false,
      "inputs": [
        {
          "indexed": false,
          "internalType": "address",
          "name": "account",
          "type": "address"
        },
        {
          "indexed": false,
          "internalType": "uint256",
          "name": "shares",
          "type": "uint256"
        }
      ],
      "name": "PayeeAdded",
      "type": "event"
    },
    {
      "anonymous": false,
      "inputs": [
        {
          "indexed": false,
          "internalType": "address",
          "name": "to",
          "type": "address"
        },
        {
          "indexed": false,
          "internalType": "uint256",
          "name": "amount",
          "type": "uint256"
        }
      ],
      "name": "PaymentReleased",
      "type": "event"
    },
    {
      "anonymous": false,
      "inputs": [
        {
          "indexed": true,
          "internalType": "uint256",
          "name": "index",
          "type": "uint256"
        },
        {
          "indexed": true,
          "internalType": "address",
          "name": "account",
          "type": "address"
        },
        {
          "indexed": false,
          "internalType": "uint256",
          "name": "amount",
          "type": "uint256"
        }
      ],
      "name": "Purchased",
      "type": "event"
    },
    {
      "anonymous": false,
      "inputs": [
        {
          "indexed": true,
          "internalType": "uint256",
          "name": "indexToRedeem",
          "type": "uint256"
        },
        {
          "indexed": true,
          "internalType": "uint256",
          "name": "indexToMint",
          "type": "uint256"
        },
        {
          "indexed": true,
          "internalType": "address",
          "name": "account",
          "type": "address"
        },
        {
          "indexed": false,
          "internalType": "uint256",
          "name": "amount",
          "type": "uint256"
        }
      ],
      "name": "RedeemedForCard",
      "type": "event"
    },
    {
      "anonymous": false,
      "inputs": [
        {
          "indexed": true,
          "internalType": "address",
          "name": "operator",
          "type": "address"
        },
        {
          "indexed": true,
          "internalType": "address",
          "name": "from",
          "type": "address"
        },
        {
          "indexed": true,
          "internalType": "address",
          "name": "to",
          "type": "address"
        },
        {
          "indexed": false,
          "internalType": "uint256[]",
          "name": "ids",
          "type": "uint256[]"
        },
        {
          "indexed": false,
          "internalType": "uint256[]",
          "name": "values",
          "type": "uint256[]"
        }
      ],
      "name": "TransferBatch",
      "type": "event"
    },
    {
      "anonymous": false,
      "inputs": [
        {
          "indexed": true,
          "internalType": "address",
          "name": "operator",
          "type": "address"
        },
        {
          "indexed": true,
          "internalType": "address",
          "name": "from",
          "type": "address"
        },
        {
          "indexed": true,
          "internalType": "address",
          "name": "to",
          "type": "address"
        },
        {
          "indexed": false,
          "internalType": "uint256",
          "name": "id",
          "type": "uint256"
        },
        {
          "indexed": false,
          "internalType": "uint256",
          "name": "value",
          "type": "uint256"
        }
      ],
      "name": "TransferSingle",
      "type": "event"
    },
    {
      "anonymous": false,
      "inputs": [
        {
          "indexed": false,
          "internalType": "string",
          "name": "value",
          "type": "string"
        },
        {
          "indexed": true,
          "internalType": "uint256",
          "name": "id",
          "type": "uint256"
        }
      ],
      "name": "URI",
      "type": "event"
    },
    {
      "anonymous": false,
      "inputs": [
        {
          "indexed": false,
          "internalType": "address",
          "name": "account",
          "type": "address"
        }
      ],
      "name": "Unpaused",
      "type": "event"
    },
    {
      "inputs": [
        {
          "internalType": "address",
          "name": "account",
          "type": "address"
        },
        {
          "internalType": "uint256",
          "name": "id",
          "type": "uint256"
        }
      ],
      "name": "balanceOf",
      "outputs": [
        {
          "internalType": "uint256",
          "name": "",
          "type": "uint256"
        }
      ],
      "stateMutability": "view",
      "type": "function"
    },
    {
      "inputs": [
        {
          "internalType": "address[]",
          "name": "accounts",
          "type": "address[]"
        },
        {
          "internalType": "uint256[]",
          "name": "ids",
          "type": "uint256[]"
        }
      ],
      "name": "balanceOfBatch",
      "outputs": [
        {
          "internalType": "uint256[]",
          "name": "",
          "type": "uint256[]"
        }
      ],
      "stateMutability": "view",
      "type": "function"
    },
    {
      "inputs": [
        {
          "internalType": "address",
          "name": "account",
          "type": "address"
        },
        {
          "internalType": "uint256",
          "name": "id",
          "type": "uint256"
        },
        {
          "internalType": "uint256",
          "name": "value",
          "type": "uint256"
        }
      ],
      "name": "burn",
      "outputs": [],
      "stateMutability": "nonpayable",
      "type": "function"
    },
    {
      "inputs": [
        {
          "internalType": "address",
          "name": "account",
          "type": "address"
        },
        {
          "internalType": "uint256[]",
          "name": "ids",
          "type": "uint256[]"
        },
        {
          "internalType": "uint256[]",
          "name": "values",
          "type": "uint256[]"
        }
      ],
      "name": "burnBatch",
      "outputs": [],
      "stateMutability": "nonpayable",
      "type": "function"
    },
    {
      "inputs": [],
      "name": "burnWindowCloses",
      "outputs": [
        {
          "internalType": "uint256",
          "name": "",
          "type": "uint256"
        }
      ],
      "stateMutability": "view",
      "type": "function"
    },
    {
      "inputs": [],
      "name": "burnWindowOpens",
      "outputs": [
        {
          "internalType": "uint256",
          "name": "",
          "type": "uint256"
        }
      ],
      "stateMutability": "view",
      "type": "function"
    },
    {
      "inputs": [],
      "name": "cardIdToMint",
      "outputs": [
        {
          "internalType": "uint256",
          "name": "",
          "type": "uint256"
        }
      ],
      "stateMutability": "view",
      "type": "function"
    },
    {
      "inputs": [],
      "name": "earlyAccessWindowOpens",
      "outputs": [
        {
          "internalType": "uint256",
          "name": "",
          "type": "uint256"
        }
      ],
      "stateMutability": "view",
      "type": "function"
    },
    {
      "inputs": [
        {
          "internalType": "uint8",
          "name": "_maxPerTx",
          "type": "uint8"
        },
        {
          "internalType": "uint8",
          "name": "_maxTxEarly",
          "type": "uint8"
        },
        {
          "internalType": "uint8",
          "name": "_maxTxPublic",
          "type": "uint8"
        }
      ],
      "name": "editSaleRestrictions",
      "outputs": [],
      "stateMutability": "nonpayable",
      "type": "function"
    },
    {
      "inputs": [
        {
          "internalType": "uint256",
          "name": "_purchaseWindowOpens",
          "type": "uint256"
        },
        {
          "internalType": "uint256",
          "name": "_purchaseWindowCloses",
          "type": "uint256"
        },
        {
          "internalType": "uint256",
          "name": "_earlyAccessWindowOpens",
          "type": "uint256"
        },
        {
          "internalType": "uint256",
          "name": "_burnWindowOpens",
          "type": "uint256"
        },
        {
          "internalType": "uint256",
          "name": "_burnWindowCloses",
          "type": "uint256"
        }
      ],
      "name": "editWindows",
      "outputs": [],
      "stateMutability": "nonpayable",
      "type": "function"
    },
    {
      "inputs": [
        {
          "internalType": "uint256",
          "name": "id",
          "type": "uint256"
        }
      ],
      "name": "exists",
      "outputs": [
        {
          "internalType": "bool",
          "name": "",
          "type": "bool"
        }
      ],
      "stateMutability": "view",
      "type": "function"
    },
    {
      "inputs": [
        {
          "internalType": "address",
          "name": "account",
          "type": "address"
        },
        {
          "internalType": "address",
          "name": "operator",
          "type": "address"
        }
      ],
      "name": "isApprovedForAll",
      "outputs": [
        {
          "internalType": "bool",
          "name": "",
          "type": "bool"
        }
      ],
      "stateMutability": "view",
      "type": "function"
    },
    {
      "inputs": [],
      "name": "mintPrice",
      "outputs": [
        {
          "internalType": "uint256",
          "name": "",
          "type": "uint256"
        }
      ],
      "stateMutability": "view",
      "type": "function"
    },
    {
      "inputs": [],
      "name": "name",
      "outputs": [
        {
          "internalType": "string",
          "name": "",
          "type": "string"
        }
      ],
      "stateMutability": "view",
      "type": "function"
    },
    {
      "inputs": [],
      "name": "owner",
      "outputs": [
        {
          "internalType": "address",
          "name": "",
          "type": "address"
        }
      ],
      "stateMutability": "view",
      "type": "function"
    },
    {
      "inputs": [],
      "name": "pause",
      "outputs": [],
      "stateMutability": "nonpayable",
      "type": "function"
    },
    {
      "inputs": [],
      "name": "paused",
      "outputs": [
        {
          "internalType": "bool",
          "name": "",
          "type": "bool"
        }
      ],
      "stateMutability": "view",
      "type": "function"
    },
    {
      "inputs": [
        {
          "internalType": "uint256",
          "name": "amount",
          "type": "uint256"
        }
      ],
      "name": "purchase",
      "outputs": [],
      "stateMutability": "payable",
      "type": "function"
    },
    {
      "inputs": [
        {
          "internalType": "address",
          "name": "",
          "type": "address"
        }
      ],
      "name": "purchaseTxs",
      "outputs": [
        {
          "internalType": "uint256",
          "name": "",
          "type": "uint256"
        }
      ],
      "stateMutability": "view",
      "type": "function"
    },
    {
      "inputs": [],
      "name": "purchaseWindowCloses",
      "outputs": [
        {
          "internalType": "uint256",
          "name": "",
          "type": "uint256"
        }
      ],
      "stateMutability": "view",
      "type": "function"
    },
    {
      "inputs": [],
      "name": "purchaseWindowOpens",
      "outputs": [
        {
          "internalType": "uint256",
          "name": "",
          "type": "uint256"
        }
      ],
      "stateMutability": "view",
      "type": "function"
    },
    {
      "inputs": [
        {
          "internalType": "uint256",
          "name": "cardIdToRedeem",
          "type": "uint256"
        },
        {
          "internalType": "uint256",
          "name": "amount",
          "type": "uint256"
        }
      ],
      "name": "redeemCardForOther",
      "outputs": [],
      "stateMutability": "nonpayable",
      "type": "function"
    },
    {
      "inputs": [
        {
          "internalType": "address payable",
          "name": "account",
          "type": "address"
        }
      ],
      "name": "release",
      "outputs": [],
      "stateMutability": "nonpayable",
      "type": "function"
    },
    {
      "inputs": [],
      "name": "renounceOwnership",
      "outputs": [],
      "stateMutability": "nonpayable",
      "type": "function"
    },
    {
      "inputs": [],
      "name": "returnToPreviousStage",
      "outputs": [],
      "stateMutability": "nonpayable",
      "type": "function"
    },
    {
      "inputs": [
        {
          "internalType": "address",
          "name": "from",
          "type": "address"
        },
        {
          "internalType": "address",
          "name": "to",
          "type": "address"
        },
        {
          "internalType": "uint256[]",
          "name": "ids",
          "type": "uint256[]"
        },
        {
          "internalType": "uint256[]",
          "name": "amounts",
          "type": "uint256[]"
        },
        {
          "internalType": "bytes",
          "name": "data",
          "type": "bytes"
        }
      ],
      "name": "safeBatchTransferFrom",
      "outputs": [],
      "stateMutability": "nonpayable",
      "type": "function"
    },
    {
      "inputs": [
        {
          "internalType": "address",
          "name": "from",
          "type": "address"
        },
        {
          "internalType": "address",
          "name": "to",
          "type": "address"
        },
        {
          "internalType": "uint256",
          "name": "id",
          "type": "uint256"
        },
        {
          "internalType": "uint256",
          "name": "amount",
          "type": "uint256"
        },
        {
          "internalType": "bytes",
          "name": "data",
          "type": "bytes"
        }
      ],
      "name": "safeTransferFrom",
      "outputs": [],
      "stateMutability": "nonpayable",
      "type": "function"
    },
    {
      "inputs": [
        {
          "internalType": "address",
          "name": "operator",
          "type": "address"
        },
        {
          "internalType": "bool",
          "name": "approved",
          "type": "bool"
        }
      ],
      "name": "setApprovalForAll",
      "outputs": [],
      "stateMutability": "nonpayable",
      "type": "function"
    },
    {
      "inputs": [
        {
          "internalType": "uint256",
          "name": "_mintPrice",
          "type": "uint256"
        }
      ],
      "name": "setPrice",
      "outputs": [],
      "stateMutability": "nonpayable",
      "type": "function"
    },
    {
      "inputs": [
        {
          "internalType": "string",
          "name": "baseURI",
          "type": "string"
        }
      ],
      "name": "setURI",
      "outputs": [],
      "stateMutability": "nonpayable",
      "type": "function"
    },
    {
      "inputs": [
        {
          "internalType": "address",
          "name": "account",
          "type": "address"
        }
      ],
      "name": "shares",
      "outputs": [
        {
          "internalType": "uint256",
          "name": "",
          "type": "uint256"
        }
      ],
      "stateMutability": "view",
      "type": "function"
    },
    {
      "inputs": [],
      "name": "startNextStage",
      "outputs": [],
      "stateMutability": "nonpayable",
      "type": "function"
    },
    {
      "inputs": [
        {
          "internalType": "bytes4",
          "name": "interfaceId",
          "type": "bytes4"
        }
      ],
      "name": "supportsInterface",
      "outputs": [
        {
          "internalType": "bool",
          "name": "",
          "type": "bool"
        }
      ],
      "stateMutability": "view",
      "type": "function"
    },
    {
      "inputs": [],
      "name": "symbol",
      "outputs": [
        {
          "internalType": "string",
          "name": "",
          "type": "string"
        }
      ],
      "stateMutability": "view",
      "type": "function"
    },
    {
      "inputs": [
        {
          "internalType": "uint256",
          "name": "id",
          "type": "uint256"
        }
      ],
      "name": "totalSupply",
      "outputs": [
        {
          "internalType": "uint256",
          "name": "",
          "type": "uint256"
        }
      ],
      "stateMutability": "view",
      "type": "function"
    },
    {
      "inputs": [
        {
          "internalType": "address",
          "name": "newOwner",
          "type": "address"
        }
      ],
      "name": "transferOwnership",
      "outputs": [],
      "stateMutability": "nonpayable",
      "type": "function"
    },
    {
      "inputs": [],
      "name": "unpause",
      "outputs": [],
      "stateMutability": "nonpayable",
      "type": "function"
    },
    {
      "inputs": [
        {
          "internalType": "uint256",
          "name": "_id",
          "type": "uint256"
        }
      ],
      "name": "uri",
      "outputs": [
        {
          "internalType": "string",
          "name": "",
          "type": "string"
        }
      ],
      "stateMutability": "view",
      "type": "function"
    }
  ],
  "bytecode": "0x60806040526002600d60006101000a81548160ff021916908360ff1602179055506002600d60016101000a81548160ff021916908360ff1602179055506001600d60026101000a81548160ff021916908360ff16021790555067016345785d8a0000600e556001600f556407932c3ec46010556407932c3ec56011556407932c3ec66012556407932c3ec76013556407932c3ec8601455348015620000a357600080fd5b50604051620078be380380620078be8339818101604052810190620000c9919062001091565b81818460008060006101000a81548160ff021916908315150217905550620000f7816200028f60201b60201c565b50620001186200010c620002ab60201b60201c565b620002b360201b60201c565b80518251146200015f576040517f08c379a000000000000000000000000000000000000000000000000000000000815260040162000156906200123b565b60405180910390fd5b6000825111620001a6576040517f08c379a00000000000000000000000000000000000000000000000000000000081526004016200019d90620012ad565b60405180910390fd5b60005b82518110156200021557620001ff838281518110620001cd57620001cc620012cf565b5b6020026020010151838381518110620001eb57620001ea620012cf565b5b60200260200101516200037960201b60201c565b80806200020c906200132d565b915050620001a9565b50505084600690805190602001906200023092919062000bf3565b5083600790805190602001906200024992919062000bf3565b5062000284738c685c44facb8bf246fcb0e383cca4bd46634bf8600061017c60405180602001604052806000815250620005b360201b60201c565b505050505062001af2565b8060039080519060200190620002a792919062000bf3565b5050565b600033905090565b6000600560009054906101000a900473ffffffffffffffffffffffffffffffffffffffff16905081600560006101000a81548173ffffffffffffffffffffffffffffffffffffffff021916908373ffffffffffffffffffffffffffffffffffffffff1602179055508173ffffffffffffffffffffffffffffffffffffffff168173ffffffffffffffffffffffffffffffffffffffff167f8be0079c531659141344cd1fd0a4f28419497f9722a3daafe3b4186f6b6457e060405160405180910390a35050565b600073ffffffffffffffffffffffffffffffffffffffff168273ffffffffffffffffffffffffffffffffffffffff161415620003ec576040517f08c379a0000000000000000000000000000000000000000000000000000000008152600401620003e390620013f1565b60405180910390fd5b6000811162000432576040517f08c379a0000000000000000000000000000000000000000000000000000000008152600401620004299062001463565b60405180910390fd5b6000600a60008473ffffffffffffffffffffffffffffffffffffffff1673ffffffffffffffffffffffffffffffffffffffff1681526020019081526020016000205414620004b7576040517f08c379a0000000000000000000000000000000000000000000000000000000008152600401620004ae90620014fb565b60405180910390fd5b600c829080600181540180825580915050600190039060005260206000200160009091909190916101000a81548173ffffffffffffffffffffffffffffffffffffffff021916908373ffffffffffffffffffffffffffffffffffffffff16021790555080600a60008473ffffffffffffffffffffffffffffffffffffffff1673ffffffffffffffffffffffffffffffffffffffff16815260200190815260200160002081905550806008546200056e91906200151d565b6008819055507f40c340f65e17194d14ddddb073d3c9f888e3cb52b5aae0c6c7706b4fbc905fac8282604051620005a79291906200159c565b60405180910390a15050565b600073ffffffffffffffffffffffffffffffffffffffff168473ffffffffffffffffffffffffffffffffffffffff16141562000626576040517f08c379a00000000000000000000000000000000000000000000000000000000081526004016200061d906200163f565b60405180910390fd5b600062000638620002ab60201b60201c565b9050620006718160008762000653886200077960201b60201c565b62000664886200077960201b60201c565b87620007fa60201b60201c565b826001600086815260200190815260200160002060008773ffffffffffffffffffffffffffffffffffffffff1673ffffffffffffffffffffffffffffffffffffffff1681526020019081526020016000206000828254620006d391906200151d565b925050819055508473ffffffffffffffffffffffffffffffffffffffff16600073ffffffffffffffffffffffffffffffffffffffff168273ffffffffffffffffffffffffffffffffffffffff167fc3d58168c5ae7397731d063d5bbf3d657854427343f4c083240f7aacaa2d0f6287876040516200075392919062001661565b60405180910390a462000772816000878787876200081d60201b60201c565b5050505050565b60606000600167ffffffffffffffff8111156200079b576200079a62000cd2565b5b604051908082528060200260200182016040528015620007ca5781602001602082028036833780820191505090505b5090508281600081518110620007e557620007e4620012cf565b5b60200260200101818152505080915050919050565b6200081586868686868662000a2760201b62001c211760201c565b505050505050565b620008498473ffffffffffffffffffffffffffffffffffffffff1662000bc860201b62001d9b1760201c565b1562000a1f578373ffffffffffffffffffffffffffffffffffffffff1663f23a6e6187878686866040518663ffffffff1660e01b815260040162000892959493929190620016eb565b602060405180830381600087803b158015620008ad57600080fd5b505af1925050508015620008e157506040513d601f19601f82011682018060405250810190620008de9190620017ac565b60015b6200099357620008f0620017eb565b806308c379a014156200095457506200090862001810565b8062000915575062000956565b806040517f08c379a00000000000000000000000000000000000000000000000000000000081526004016200094b9190620018fe565b60405180910390fd5b505b6040517f08c379a00000000000000000000000000000000000000000000000000000000081526004016200098a9062001998565b60405180910390fd5b63f23a6e6160e01b7bffffffffffffffffffffffffffffffffffffffffffffffffffffffff1916817bffffffffffffffffffffffffffffffffffffffffffffffffffffffff19161462000a1d576040517f08c379a000000000000000000000000000000000000000000000000000000000815260040162000a149062001a30565b60405180910390fd5b505b505050505050565b62000a4286868686868662000beb60201b62001dbe1760201c565b600073ffffffffffffffffffffffffffffffffffffffff168573ffffffffffffffffffffffffffffffffffffffff16141562000b015760005b835181101562000aff5782818151811062000a9b5762000a9a620012cf565b5b60200260200101516004600086848151811062000abd5762000abc620012cf565b5b60200260200101518152602001908152602001600020600082825462000ae491906200151d565b925050819055508062000af7906200132d565b905062000a7b565b505b600073ffffffffffffffffffffffffffffffffffffffff168473ffffffffffffffffffffffffffffffffffffffff16141562000bc05760005b835181101562000bbe5782818151811062000b5a5762000b59620012cf565b5b60200260200101516004600086848151811062000b7c5762000b7b620012cf565b5b60200260200101518152602001908152602001600020600082825462000ba3919062001a52565b925050819055508062000bb6906200132d565b905062000b3a565b505b505050505050565b6000808273ffffffffffffffffffffffffffffffffffffffff163b119050919050565b505050505050565b82805462000c019062001abc565b90600052602060002090601f01602090048101928262000c25576000855562000c71565b82601f1062000c4057805160ff191683800117855562000c71565b8280016001018555821562000c71579182015b8281111562000c7057825182559160200191906001019062000c53565b5b50905062000c80919062000c84565b5090565b5b8082111562000c9f57600081600090555060010162000c85565b5090565b6000604051905090565b600080fd5b600080fd5b600080fd5b600080fd5b6000601f19601f8301169050919050565b7f4e487b7100000000000000000000000000000000000000000000000000000000600052604160045260246000fd5b62000d0c8262000cc1565b810181811067ffffffffffffffff8211171562000d2e5762000d2d62000cd2565b5b80604052505050565b600062000d4362000ca3565b905062000d51828262000d01565b919050565b600067ffffffffffffffff82111562000d745762000d7362000cd2565b5b62000d7f8262000cc1565b9050602081019050919050565b60005b8381101562000dac57808201518184015260208101905062000d8f565b8381111562000dbc576000848401525b50505050565b600062000dd962000dd38462000d56565b62000d37565b90508281526020810184848401111562000df85762000df762000cbc565b5b62000e0584828562000d8c565b509392505050565b600082601f83011262000e255762000e2462000cb7565b5b815162000e3784826020860162000dc2565b91505092915050565b600067ffffffffffffffff82111562000e5e5762000e5d62000cd2565b5b602082029050602081019050919050565b600080fd5b600073ffffffffffffffffffffffffffffffffffffffff82169050919050565b600062000ea18262000e74565b9050919050565b62000eb38162000e94565b811462000ebf57600080fd5b50565b60008151905062000ed38162000ea8565b92915050565b600062000ef062000eea8462000e40565b62000d37565b9050808382526020820190506020840283018581111562000f165762000f1562000e6f565b5b835b8181101562000f43578062000f2e888262000ec2565b84526020840193505060208101905062000f18565b5050509392505050565b600082601f83011262000f655762000f6462000cb7565b5b815162000f7784826020860162000ed9565b91505092915050565b600067ffffffffffffffff82111562000f9e5762000f9d62000cd2565b5b602082029050602081019050919050565b6000819050919050565b62000fc48162000faf565b811462000fd057600080fd5b50565b60008151905062000fe48162000fb9565b92915050565b60006200100162000ffb8462000f80565b62000d37565b9050808382526020820190506020840283018581111562001027576200102662000e6f565b5b835b818110156200105457806200103f888262000fd3565b84526020840193505060208101905062001029565b5050509392505050565b600082601f83011262001076576200107562000cb7565b5b81516200108884826020860162000fea565b91505092915050565b600080600080600060a08688031215620010b057620010af62000cad565b5b600086015167ffffffffffffffff811115620010d157620010d062000cb2565b5b620010df8882890162000e0d565b955050602086015167ffffffffffffffff81111562001103576200110262000cb2565b5b620011118882890162000e0d565b945050604086015167ffffffffffffffff81111562001135576200113462000cb2565b5b620011438882890162000e0d565b935050606086015167ffffffffffffffff81111562001167576200116662000cb2565b5b620011758882890162000f4d565b925050608086015167ffffffffffffffff81111562001199576200119862000cb2565b5b620011a7888289016200105e565b9150509295509295909350565b600082825260208201905092915050565b7f5061796d656e7453706c69747465723a2070617965657320616e64207368617260008201527f6573206c656e677468206d69736d617463680000000000000000000000000000602082015250565b600062001223603283620011b4565b91506200123082620011c5565b604082019050919050565b60006020820190508181036000830152620012568162001214565b9050919050565b7f5061796d656e7453706c69747465723a206e6f20706179656573000000000000600082015250565b600062001295601a83620011b4565b9150620012a2826200125d565b602082019050919050565b60006020820190508181036000830152620012c88162001286565b9050919050565b7f4e487b7100000000000000000000000000000000000000000000000000000000600052603260045260246000fd5b7f4e487b7100000000000000000000000000000000000000000000000000000000600052601160045260246000fd5b60006200133a8262000faf565b91507fffffffffffffffffffffffffffffffffffffffffffffffffffffffffffffffff82141562001370576200136f620012fe565b5b600182019050919050565b7f5061796d656e7453706c69747465723a206163636f756e74206973207468652060008201527f7a65726f20616464726573730000000000000000000000000000000000000000602082015250565b6000620013d9602c83620011b4565b9150620013e6826200137b565b604082019050919050565b600060208201905081810360008301526200140c81620013ca565b9050919050565b7f5061796d656e7453706c69747465723a20736861726573206172652030000000600082015250565b60006200144b601d83620011b4565b9150620014588262001413565b602082019050919050565b600060208201905081810360008301526200147e816200143c565b9050919050565b7f5061796d656e7453706c69747465723a206163636f756e7420616c726561647960008201527f2068617320736861726573000000000000000000000000000000000000000000602082015250565b6000620014e3602b83620011b4565b9150620014f08262001485565b604082019050919050565b600060208201905081810360008301526200151681620014d4565b9050919050565b60006200152a8262000faf565b9150620015378362000faf565b9250827fffffffffffffffffffffffffffffffffffffffffffffffffffffffffffffffff038211156200156f576200156e620012fe565b5b828201905092915050565b620015858162000e94565b82525050565b620015968162000faf565b82525050565b6000604082019050620015b360008301856200157a565b620015c260208301846200158b565b9392505050565b7f455243313135353a206d696e7420746f20746865207a65726f2061646472657360008201527f7300000000000000000000000000000000000000000000000000000000000000602082015250565b600062001627602183620011b4565b91506200163482620015c9565b604082019050919050565b600060208201905081810360008301526200165a8162001618565b9050919050565b60006040820190506200167860008301856200158b565b6200168760208301846200158b565b9392505050565b600081519050919050565b600082825260208201905092915050565b6000620016b7826200168e565b620016c3818562001699565b9350620016d581856020860162000d8c565b620016e08162000cc1565b840191505092915050565b600060a0820190506200170260008301886200157a565b6200171160208301876200157a565b6200172060408301866200158b565b6200172f60608301856200158b565b8181036080830152620017438184620016aa565b90509695505050505050565b60007fffffffff0000000000000000000000000000000000000000000000000000000082169050919050565b62001786816200174f565b81146200179257600080fd5b50565b600081519050620017a6816200177b565b92915050565b600060208284031215620017c557620017c462000cad565b5b6000620017d58482850162001795565b91505092915050565b60008160e01c9050919050565b600060033d11156200180d5760046000803e6200180a600051620017de565b90505b90565b600060443d10156200182257620018af565b6200182c62000ca3565b60043d036004823e80513d602482011167ffffffffffffffff8211171562001856575050620018af565b808201805167ffffffffffffffff811115620018765750505050620018af565b80602083010160043d03850181111562001895575050505050620018af565b620018a68260200185018662000d01565b82955050505050505b90565b600081519050919050565b6000620018ca82620018b2565b620018d68185620011b4565b9350620018e881856020860162000d8c565b620018f38162000cc1565b840191505092915050565b600060208201905081810360008301526200191a8184620018bd565b905092915050565b7f455243313135353a207472616e7366657220746f206e6f6e204552433131353560008201527f526563656976657220696d706c656d656e746572000000000000000000000000602082015250565b600062001980603483620011b4565b91506200198d8262001922565b604082019050919050565b60006020820190508181036000830152620019b38162001971565b9050919050565b7f455243313135353a204552433131353552656365697665722072656a6563746560008201527f6420746f6b656e73000000000000000000000000000000000000000000000000602082015250565b600062001a18602883620011b4565b915062001a2582620019ba565b604082019050919050565b6000602082019050818103600083015262001a4b8162001a09565b9050919050565b600062001a5f8262000faf565b915062001a6c8362000faf565b92508282101562001a825762001a81620012fe565b5b828203905092915050565b7f4e487b7100000000000000000000000000000000000000000000000000000000600052602260045260246000fd5b6000600282049050600182168062001ad557607f821691505b6020821081141562001aec5762001aeb62001a8d565b5b50919050565b615dbc8062001b026000396000f3fe6080604052600436106102245760003560e01c80637b58de8b11610123578063ab8e0a29116100ab578063f242432a1161006f578063f242432a146107d3578063f260159e146107fc578063f2fde38b14610813578063f5298aca1461083c578063f86850301461086557610224565b8063ab8e0a29146106d5578063bd85b03914610700578063ce7c2ac21461073d578063e985e9c51461077a578063efef39a1146107b757610224565b80638f0d94b2116100f25780638f0d94b21461060657806391b7f5ed1461062f57806395d89b4114610658578063a22cb46514610683578063ab22ff02146106ac57610224565b80637b58de8b1461056e57806381e3d057146105995780638456cb59146105c45780638da5cb5b146105db57610224565b80633e8d1c07116101b15780635c975abb116101755780635c975abb146104c15780635ee6509a146104ec5780636817c76c146105035780636b20c4541461052e578063715018a61461055757610224565b80633e8d1c07146103dc5780633f4ba83a146104075780634bbce33f1461041e5780634e1273f4146104475780634f558e791461048457610224565b806306fdde03116101f857806306fdde03146102f75780630e89341c14610322578063191655871461035f5780632eb2c2d6146103885780633b44c8d0146103b157610224565b8062fdd58e14610229578063019863c31461026657806301ffc9a71461029157806302fe5305146102ce575b600080fd5b34801561023557600080fd5b50610250600480360381019061024b9190613a97565b6108a2565b60405161025d9190613ae6565b60405180910390f35b34801561027257600080fd5b5061027b61096c565b6040516102889190613ae6565b60405180910390f35b34801561029d57600080fd5b506102b860048036038101906102b39190613b59565b610972565b6040516102c59190613ba1565b60405180910390f35b3480156102da57600080fd5b506102f560048036038101906102f09190613d02565b610a54565b005b34801561030357600080fd5b5061030c610adc565b6040516103199190613dd3565b60405180910390f35b34801561032e57600080fd5b5061034960048036038101906103449190613df5565b610b6e565b6040516103569190613dd3565b60405180910390f35b34801561036b57600080fd5b5061038660048036038101906103819190613e60565b610bf1565b005b34801561039457600080fd5b506103af60048036038101906103aa9190613ff6565b610ca8565b005b3480156103bd57600080fd5b506103c6610d49565b6040516103d39190613ae6565b60405180910390f35b3480156103e857600080fd5b506103f1610d4f565b6040516103fe9190613ae6565b60405180910390f35b34801561041357600080fd5b5061041c610d55565b005b34801561042a57600080fd5b50610445600480360381019061044091906140c5565b610ddb565b005b34801561045357600080fd5b5061046e600480360381019061046991906141c8565b610f90565b60405161047b91906142fe565b60405180910390f35b34801561049057600080fd5b506104ab60048036038101906104a69190613df5565b6110a9565b6040516104b89190613ba1565b60405180910390f35b3480156104cd57600080fd5b506104d66110bd565b6040516104e39190613ba1565b60405180910390f35b3480156104f857600080fd5b506105016110d3565b005b34801561050f57600080fd5b5061051861116b565b6040516105259190613ae6565b60405180910390f35b34801561053a57600080fd5b5061055560048036038101906105509190614320565b611171565b005b34801561056357600080fd5b5061056c611268565b005b34801561057a57600080fd5b506105836112f0565b6040516105909190613ae6565b60405180910390f35b3480156105a557600080fd5b506105ae6112f6565b6040516105bb9190613ae6565b60405180910390f35b3480156105d057600080fd5b506105d96112fc565b005b3480156105e757600080fd5b506105f0611382565b6040516105fd91906143ba565b60405180910390f35b34801561061257600080fd5b5061062d6004803603810190610628919061440e565b6113ac565b005b34801561063b57600080fd5b5061065660048036038101906106519190613df5565b61147e565b005b34801561066457600080fd5b5061066d611504565b60405161067a9190613dd3565b60405180910390f35b34801561068f57600080fd5b506106aa60048036038101906106a5919061448d565b611596565b005b3480156106b857600080fd5b506106d360048036038101906106ce91906144cd565b6115ac565b005b3480156106e157600080fd5b506106ea6116b5565b6040516106f79190613ae6565b60405180910390f35b34801561070c57600080fd5b5061072760048036038101906107229190613df5565b6116bb565b6040516107349190613ae6565b60405180910390f35b34801561074957600080fd5b50610764600480360381019061075f9190614548565b6116d8565b6040516107719190613ae6565b60405180910390f35b34801561078657600080fd5b506107a1600480360381019061079c9190614575565b611721565b6040516107ae9190613ba1565b60405180910390f35b6107d160048036038101906107cc9190613df5565b6117b5565b005b3480156107df57600080fd5b506107fa60048036038101906107f591906145b5565b61189c565b005b34801561080857600080fd5b5061081161193d565b005b34801561081f57600080fd5b5061083a60048036038101906108359190614548565b611a1a565b005b34801561084857600080fd5b50610863600480360381019061085e919061464c565b611b12565b005b34801561087157600080fd5b5061088c60048036038101906108879190614548565b611c09565b6040516108999190613ae6565b60405180910390f35b60008073ffffffffffffffffffffffffffffffffffffffff168373ffffffffffffffffffffffffffffffffffffffff161415610913576040517f08c379a000000000000000000000000000000000000000000000000000000000815260040161090a90614711565b60405180910390fd5b6001600083815260200190815260200160002060008473ffffffffffffffffffffffffffffffffffffffff1673ffffffffffffffffffffffffffffffffffffffff16815260200190815260200160002054905092915050565b60145481565b60007fd9b67a26000000000000000000000000000000000000000000000000000000007bffffffffffffffffffffffffffffffffffffffffffffffffffffffff1916827bffffffffffffffffffffffffffffffffffffffffffffffffffffffff19161480610a3d57507f0e89341c000000000000000000000000000000000000000000000000000000007bffffffffffffffffffffffffffffffffffffffffffffffffffffffff1916827bffffffffffffffffffffffffffffffffffffffffffffffffffffffff1916145b80610a4d5750610a4c82611dc6565b5b9050919050565b610a5c611e30565b73ffffffffffffffffffffffffffffffffffffffff16610a7a611382565b73ffffffffffffffffffffffffffffffffffffffff1614610ad0576040517f08c379a0000000000000000000000000000000000000000000000000000000008152600401610ac79061477d565b60405180910390fd5b610ad981611e38565b50565b606060068054610aeb906147cc565b80601f0160208091040260200160405190810160405280929190818152602001828054610b17906147cc565b8015610b645780601f10610b3957610100808354040283529160200191610b64565b820191906000526020600020905b815481529060010190602001808311610b4757829003601f168201915b5050505050905090565b6060610b79826110a9565b610bb8576040517f08c379a0000000000000000000000000000000000000000000000000000000008152600401610baf9061484a565b60405180910390fd5b610bc182611e52565b610bca83611ee6565b604051602001610bdb9291906148a6565b6040516020818303038152906040529050919050565b8073ffffffffffffffffffffffffffffffffffffffff163373ffffffffffffffffffffffffffffffffffffffff161480610c5d5750610c2e611382565b73ffffffffffffffffffffffffffffffffffffffff163373ffffffffffffffffffffffffffffffffffffffff16145b610c9c576040517f08c379a0000000000000000000000000000000000000000000000000000000008152600401610c9390614916565b60405180910390fd5b610ca581612047565b50565b610cb0611e30565b73ffffffffffffffffffffffffffffffffffffffff168573ffffffffffffffffffffffffffffffffffffffff161480610cf65750610cf585610cf0611e30565b611721565b5b610d35576040517f08c379a0000000000000000000000000000000000000000000000000000000008152600401610d2c906149a8565b60405180910390fd5b610d4285858585856122af565b5050505050565b60115481565b60105481565b610d5d611e30565b73ffffffffffffffffffffffffffffffffffffffff16610d7b611382565b73ffffffffffffffffffffffffffffffffffffffff1614610dd1576040517f08c379a0000000000000000000000000000000000000000000000000000000008152600401610dc89061477d565b60405180910390fd5b610dd96125c6565b565b610de36110bd565b15610e23576040517f08c379a0000000000000000000000000000000000000000000000000000000008152600401610e1a90614a14565b60405180910390fd5b80610e2e33846108a2565b10158015610e3c5750600081115b610e7b576040517f08c379a0000000000000000000000000000000000000000000000000000000008152600401610e7290614aa6565b60405180910390fd5b6013544210158015610e8f57506014544211155b610ece576040517f08c379a0000000000000000000000000000000000000000000000000000000008152600401610ec590614b12565b60405180910390fd5b600f548210610f12576040517f08c379a0000000000000000000000000000000000000000000000000000000008152600401610f0990614ba4565b60405180910390fd5b610f1d338383612667565b610f3a33600f548360405180602001604052806000815250612886565b3373ffffffffffffffffffffffffffffffffffffffff16600f54837f7e3df7e16f2dd583d1d92bde1a070a6a70abb33398944ad0a17a09c10989162a84604051610f849190613ae6565b60405180910390a45050565b60608151835114610fd6576040517f08c379a0000000000000000000000000000000000000000000000000000000008152600401610fcd90614c36565b60405180910390fd5b6000835167ffffffffffffffff811115610ff357610ff2613bd7565b5b6040519080825280602002602001820160405280156110215781602001602082028036833780820191505090505b50905060005b845181101561109e5761106e85828151811061104657611045614c56565b5b602002602001015185838151811061106157611060614c56565b5b60200260200101516108a2565b82828151811061108157611080614c56565b5b6020026020010181815250508061109790614cb4565b9050611027565b508091505092915050565b6000806110b5836116bb565b119050919050565b60008060009054906101000a900460ff16905090565b6110db611e30565b73ffffffffffffffffffffffffffffffffffffffff166110f9611382565b73ffffffffffffffffffffffffffffffffffffffff161461114f576040517f08c379a00000000000000000000000000000000000000000000000000000000081526004016111469061477d565b60405180910390fd5b6001600f60008282546111629190614cfd565b92505081905550565b600e5481565b60125442118061118c5750620493e061118a60006116bb565b145b6111cb576040517f08c379a00000000000000000000000000000000000000000000000000000000081526004016111c290614d9f565b60405180910390fd5b6111d3611e30565b73ffffffffffffffffffffffffffffffffffffffff168373ffffffffffffffffffffffffffffffffffffffff161480611219575061121883611213611e30565b611721565b5b611258576040517f08c379a000000000000000000000000000000000000000000000000000000000815260040161124f90614e31565b60405180910390fd5b611263838383612a1d565b505050565b611270611e30565b73ffffffffffffffffffffffffffffffffffffffff1661128e611382565b73ffffffffffffffffffffffffffffffffffffffff16146112e4576040517f08c379a00000000000000000000000000000000000000000000000000000000081526004016112db9061477d565b60405180910390fd5b6112ee6000612cd0565b565b60135481565b60125481565b611304611e30565b73ffffffffffffffffffffffffffffffffffffffff16611322611382565b73ffffffffffffffffffffffffffffffffffffffff1614611378576040517f08c379a000000000000000000000000000000000000000000000000000000000815260040161136f9061477d565b60405180910390fd5b611380612d96565b565b6000600560009054906101000a900473ffffffffffffffffffffffffffffffffffffffff16905090565b6113b4611e30565b73ffffffffffffffffffffffffffffffffffffffff166113d2611382565b73ffffffffffffffffffffffffffffffffffffffff1614611428576040517f08c379a000000000000000000000000000000000000000000000000000000000815260040161141f9061477d565b60405180910390fd5b82600d60006101000a81548160ff021916908360ff16021790555081600d60026101000a81548160ff021916908360ff16021790555080600d60016101000a81548160ff021916908360ff160217905550505050565b611486611e30565b73ffffffffffffffffffffffffffffffffffffffff166114a4611382565b73ffffffffffffffffffffffffffffffffffffffff16146114fa576040517f08c379a00000000000000000000000000000000000000000000000000000000081526004016114f19061477d565b60405180910390fd5b80600e8190555050565b606060078054611513906147cc565b80601f016020809104026020016040519081016040528092919081815260200182805461153f906147cc565b801561158c5780601f106115615761010080835404028352916020019161158c565b820191906000526020600020905b81548152906001019060200180831161156f57829003601f168201915b5050505050905090565b6115a86115a1611e30565b8383612e38565b5050565b6115b4611e30565b73ffffffffffffffffffffffffffffffffffffffff166115d2611382565b73ffffffffffffffffffffffffffffffffffffffff1614611628576040517f08c379a000000000000000000000000000000000000000000000000000000000815260040161161f9061477d565b60405180910390fd5b838211801561163657508285115b801561164157508484115b801561164c57508181115b61168b576040517f08c379a000000000000000000000000000000000000000000000000000000000815260040161168290614e9d565b60405180910390fd5b84601181905550836012819055508260108190555081601381905550806014819055505050505050565b600f5481565b600060046000838152602001908152602001600020549050919050565b6000600a60008373ffffffffffffffffffffffffffffffffffffffff1673ffffffffffffffffffffffffffffffffffffffff168152602001908152602001600020549050919050565b6000600260008473ffffffffffffffffffffffffffffffffffffffff1673ffffffffffffffffffffffffffffffffffffffff16815260200190815260200160002060008373ffffffffffffffffffffffffffffffffffffffff1673ffffffffffffffffffffffffffffffffffffffff16815260200190815260200160002060009054906101000a900460ff16905092915050565b6117bd6110bd565b156117fd576040517f08c379a00000000000000000000000000000000000000000000000000000000081526004016117f490614a14565b60405180910390fd5b600d60019054906101000a900460ff1660ff16601560003373ffffffffffffffffffffffffffffffffffffffff1673ffffffffffffffffffffffffffffffffffffffff1681526020019081526020016000205410611890576040517f08c379a000000000000000000000000000000000000000000000000000000000815260040161188790614f09565b60405180910390fd5b61189981612fa5565b50565b6118a4611e30565b73ffffffffffffffffffffffffffffffffffffffff168573ffffffffffffffffffffffffffffffffffffffff1614806118ea57506118e9856118e4611e30565b611721565b5b611929576040517f08c379a000000000000000000000000000000000000000000000000000000000815260040161192090614e31565b60405180910390fd5b6119368585858585613175565b5050505050565b611945611e30565b73ffffffffffffffffffffffffffffffffffffffff16611963611382565b73ffffffffffffffffffffffffffffffffffffffff16146119b9576040517f08c379a00000000000000000000000000000000000000000000000000000000081526004016119b09061477d565b60405180910390fd5b6001600f54116119fe576040517f08c379a00000000000000000000000000000000000000000000000000000000081526004016119f590614f75565b60405180910390fd5b6001600f6000828254611a119190614f95565b92505081905550565b611a22611e30565b73ffffffffffffffffffffffffffffffffffffffff16611a40611382565b73ffffffffffffffffffffffffffffffffffffffff1614611a96576040517f08c379a0000000000000000000000000000000000000000000000000000000008152600401611a8d9061477d565b60405180910390fd5b600073ffffffffffffffffffffffffffffffffffffffff168173ffffffffffffffffffffffffffffffffffffffff161415611b06576040517f08c379a0000000000000000000000000000000000000000000000000000000008152600401611afd9061503b565b60405180910390fd5b611b0f81612cd0565b50565b601254421180611b2d5750620493e0611b2b60006116bb565b145b611b6c576040517f08c379a0000000000000000000000000000000000000000000000000000000008152600401611b6390614d9f565b60405180910390fd5b611b74611e30565b73ffffffffffffffffffffffffffffffffffffffff168373ffffffffffffffffffffffffffffffffffffffff161480611bba5750611bb983611bb4611e30565b611721565b5b611bf9576040517f08c379a0000000000000000000000000000000000000000000000000000000008152600401611bf090614e31565b60405180910390fd5b611c04838383612667565b505050565b60156020528060005260406000206000915090505481565b611c2f868686868686611dbe565b600073ffffffffffffffffffffffffffffffffffffffff168573ffffffffffffffffffffffffffffffffffffffff161415611ce15760005b8351811015611cdf57828181518110611c8357611c82614c56565b5b602002602001015160046000868481518110611ca257611ca1614c56565b5b602002602001015181526020019081526020016000206000828254611cc79190614cfd565b9250508190555080611cd890614cb4565b9050611c67565b505b600073ffffffffffffffffffffffffffffffffffffffff168473ffffffffffffffffffffffffffffffffffffffff161415611d935760005b8351811015611d9157828181518110611d3557611d34614c56565b5b602002602001015160046000868481518110611d5457611d53614c56565b5b602002602001015181526020019081526020016000206000828254611d799190614f95565b9250508190555080611d8a90614cb4565b9050611d19565b505b505050505050565b6000808273ffffffffffffffffffffffffffffffffffffffff163b119050919050565b505050505050565b60007f01ffc9a7000000000000000000000000000000000000000000000000000000007bffffffffffffffffffffffffffffffffffffffffffffffffffffffff1916827bffffffffffffffffffffffffffffffffffffffffffffffffffffffff1916149050919050565b600033905090565b8060039080519060200190611e4e92919061394c565b5050565b606060038054611e61906147cc565b80601f0160208091040260200160405190810160405280929190818152602001828054611e8d906147cc565b8015611eda5780601f10611eaf57610100808354040283529160200191611eda565b820191906000526020600020905b815481529060010190602001808311611ebd57829003601f168201915b50505050509050919050565b60606000821415611f2e576040518060400160405280600181526020017f30000000000000000000000000000000000000000000000000000000000000008152509050612042565b600082905060005b60008214611f60578080611f4990614cb4565b915050600a82611f59919061508a565b9150611f36565b60008167ffffffffffffffff811115611f7c57611f7b613bd7565b5b6040519080825280601f01601f191660200182016040528015611fae5781602001600182028036833780820191505090505b5090505b6000851461203b57600182611fc79190614f95565b9150600a85611fd691906150bb565b6030611fe29190614cfd565b60f81b818381518110611ff857611ff7614c56565b5b60200101907effffffffffffffffffffffffffffffffffffffffffffffffffffffffffffff1916908160001a905350600a85612034919061508a565b9450611fb2565b8093505050505b919050565b6000600a60008373ffffffffffffffffffffffffffffffffffffffff1673ffffffffffffffffffffffffffffffffffffffff16815260200190815260200160002054116120c9576040517f08c379a00000000000000000000000000000000000000000000000000000000081526004016120c09061515e565b60405180910390fd5b6000600954476120d99190614cfd565b90506000600b60008473ffffffffffffffffffffffffffffffffffffffff1673ffffffffffffffffffffffffffffffffffffffff16815260200190815260200160002054600854600a60008673ffffffffffffffffffffffffffffffffffffffff1673ffffffffffffffffffffffffffffffffffffffff168152602001908152602001600020548461216b919061517e565b612175919061508a565b61217f9190614f95565b905060008114156121c5576040517f08c379a00000000000000000000000000000000000000000000000000000000081526004016121bc9061524a565b60405180910390fd5b80600b60008573ffffffffffffffffffffffffffffffffffffffff1673ffffffffffffffffffffffffffffffffffffffff168152602001908152602001600020546122109190614cfd565b600b60008573ffffffffffffffffffffffffffffffffffffffff1673ffffffffffffffffffffffffffffffffffffffff16815260200190815260200160002081905550806009546122619190614cfd565b60098190555061227183826133fa565b7fdf20fd1e76bc69d672e4814fafb2c449bba3a5369d8359adf9e05e6fde87b05683826040516122a29291906152c9565b60405180910390a1505050565b81518351146122f3576040517f08c379a00000000000000000000000000000000000000000000000000000000081526004016122ea90615364565b60405180910390fd5b600073ffffffffffffffffffffffffffffffffffffffff168473ffffffffffffffffffffffffffffffffffffffff161415612363576040517f08c379a000000000000000000000000000000000000000000000000000000000815260040161235a906153f6565b60405180910390fd5b600061236d611e30565b905061237d8187878787876134ee565b60005b845181101561253157600085828151811061239e5761239d614c56565b5b6020026020010151905060008583815181106123bd576123bc614c56565b5b6020026020010151905060006001600084815260200190815260200160002060008b73ffffffffffffffffffffffffffffffffffffffff1673ffffffffffffffffffffffffffffffffffffffff1681526020019081526020016000205490508181101561245f576040517f08c379a000000000000000000000000000000000000000000000000000000000815260040161245690615488565b60405180910390fd5b8181036001600085815260200190815260200160002060008c73ffffffffffffffffffffffffffffffffffffffff1673ffffffffffffffffffffffffffffffffffffffff16815260200190815260200160002081905550816001600085815260200190815260200160002060008b73ffffffffffffffffffffffffffffffffffffffff1673ffffffffffffffffffffffffffffffffffffffff16815260200190815260200160002060008282546125169190614cfd565b925050819055505050508061252a90614cb4565b9050612380565b508473ffffffffffffffffffffffffffffffffffffffff168673ffffffffffffffffffffffffffffffffffffffff168273ffffffffffffffffffffffffffffffffffffffff167f4a39dc06d4c0dbc64b70af90fd698a233a518aa5d07e595d983b8c0526c8f7fb87876040516125a89291906154a8565b60405180910390a46125be818787878787613504565b505050505050565b6125ce6110bd565b61260d576040517f08c379a00000000000000000000000000000000000000000000000000000000081526004016126049061552b565b60405180910390fd5b60008060006101000a81548160ff0219169083151502179055507f5db9ee0a495bf2e6ff9c91a7834c1ba4fdd244a5e8aa4e537bd38aeae4b073aa612650611e30565b60405161265d91906143ba565b60405180910390a1565b600073ffffffffffffffffffffffffffffffffffffffff168373ffffffffffffffffffffffffffffffffffffffff1614156126d7576040517f08c379a00000000000000000000000000000000000000000000000000000000081526004016126ce906155bd565b60405180910390fd5b60006126e1611e30565b9050612711818560006126f3876136eb565b6126fc876136eb565b604051806020016040528060008152506134ee565b60006001600085815260200190815260200160002060008673ffffffffffffffffffffffffffffffffffffffff1673ffffffffffffffffffffffffffffffffffffffff168152602001908152602001600020549050828110156127a9576040517f08c379a00000000000000000000000000000000000000000000000000000000081526004016127a09061564f565b60405180910390fd5b8281036001600086815260200190815260200160002060008773ffffffffffffffffffffffffffffffffffffffff1673ffffffffffffffffffffffffffffffffffffffff16815260200190815260200160002081905550600073ffffffffffffffffffffffffffffffffffffffff168573ffffffffffffffffffffffffffffffffffffffff168373ffffffffffffffffffffffffffffffffffffffff167fc3d58168c5ae7397731d063d5bbf3d657854427343f4c083240f7aacaa2d0f62878760405161287792919061566f565b60405180910390a45050505050565b600073ffffffffffffffffffffffffffffffffffffffff168473ffffffffffffffffffffffffffffffffffffffff1614156128f6576040517f08c379a00000000000000000000000000000000000000000000000000000000081526004016128ed9061570a565b60405180910390fd5b6000612900611e30565b905061292181600087612912886136eb565b61291b886136eb565b876134ee565b826001600086815260200190815260200160002060008773ffffffffffffffffffffffffffffffffffffffff1673ffffffffffffffffffffffffffffffffffffffff16815260200190815260200160002060008282546129819190614cfd565b925050819055508473ffffffffffffffffffffffffffffffffffffffff16600073ffffffffffffffffffffffffffffffffffffffff168273ffffffffffffffffffffffffffffffffffffffff167fc3d58168c5ae7397731d063d5bbf3d657854427343f4c083240f7aacaa2d0f6287876040516129ff92919061566f565b60405180910390a4612a1681600087878787613765565b5050505050565b600073ffffffffffffffffffffffffffffffffffffffff168373ffffffffffffffffffffffffffffffffffffffff161415612a8d576040517f08c379a0000000000000000000000000000000000000000000000000000000008152600401612a84906155bd565b60405180910390fd5b8051825114612ad1576040517f08c379a0000000000000000000000000000000000000000000000000000000008152600401612ac890615364565b60405180910390fd5b6000612adb611e30565b9050612afb818560008686604051806020016040528060008152506134ee565b60005b8351811015612c4a576000848281518110612b1c57612b1b614c56565b5b602002602001015190506000848381518110612b3b57612b3a614c56565b5b6020026020010151905060006001600084815260200190815260200160002060008973ffffffffffffffffffffffffffffffffffffffff1673ffffffffffffffffffffffffffffffffffffffff16815260200190815260200160002054905081811015612bdd576040517f08c379a0000000000000000000000000000000000000000000000000000000008152600401612bd49061564f565b60405180910390fd5b8181036001600085815260200190815260200160002060008a73ffffffffffffffffffffffffffffffffffffffff1673ffffffffffffffffffffffffffffffffffffffff168152602001908152602001600020819055505050508080612c4290614cb4565b915050612afe565b50600073ffffffffffffffffffffffffffffffffffffffff168473ffffffffffffffffffffffffffffffffffffffff168273ffffffffffffffffffffffffffffffffffffffff167f4a39dc06d4c0dbc64b70af90fd698a233a518aa5d07e595d983b8c0526c8f7fb8686604051612cc29291906154a8565b60405180910390a450505050565b6000600560009054906101000a900473ffffffffffffffffffffffffffffffffffffffff16905081600560006101000a81548173ffffffffffffffffffffffffffffffffffffffff021916908373ffffffffffffffffffffffffffffffffffffffff1602179055508173ffffffffffffffffffffffffffffffffffffffff168173ffffffffffffffffffffffffffffffffffffffff167f8be0079c531659141344cd1fd0a4f28419497f9722a3daafe3b4186f6b6457e060405160405180910390a35050565b612d9e6110bd565b15612dde576040517f08c379a0000000000000000000000000000000000000000000000000000000008152600401612dd590614a14565b60405180910390fd5b60016000806101000a81548160ff0219169083151502179055507f62e78cea01bee320cd4e420270b5ea74000d11b0c9f74754ebdbfc544b05a258612e21611e30565b604051612e2e91906143ba565b60405180910390a1565b8173ffffffffffffffffffffffffffffffffffffffff168373ffffffffffffffffffffffffffffffffffffffff161415612ea7576040517f08c379a0000000000000000000000000000000000000000000000000000000008152600401612e9e9061579c565b60405180910390fd5b80600260008573ffffffffffffffffffffffffffffffffffffffff1673ffffffffffffffffffffffffffffffffffffffff16815260200190815260200160002060008473ffffffffffffffffffffffffffffffffffffffff1673ffffffffffffffffffffffffffffffffffffffff16815260200190815260200160002060006101000a81548160ff0219169083151502179055508173ffffffffffffffffffffffffffffffffffffffff168373ffffffffffffffffffffffffffffffffffffffff167f17307eab39ab6107e8899845ad3d59bd9653f200f220920489ca2b5937696c3183604051612f989190613ba1565b60405180910390a3505050565b600081118015612fc75750600d60009054906101000a900460ff1660ff168111155b613006576040517f08c379a0000000000000000000000000000000000000000000000000000000008152600401612ffd90615808565b60405180910390fd5b620493e08161301560006116bb565b61301f9190614cfd565b1115613060576040517f08c379a000000000000000000000000000000000000000000000000000000000815260040161305790615874565b60405180910390fd5b600e548161306e919061517e565b34146130af576040517f08c379a00000000000000000000000000000000000000000000000000000000081526004016130a6906158e0565b60405180910390fd5b6001601560003373ffffffffffffffffffffffffffffffffffffffff1673ffffffffffffffffffffffffffffffffffffffff16815260200190815260200160002060008282546130ff9190614cfd565b925050819055506131223360008360405180602001604052806000815250612886565b3373ffffffffffffffffffffffffffffffffffffffff1660007ffd51b2c9f55c42d2b72ac683526519563be02fc0107f034ff430c05185ff1b668360405161316a9190613ae6565b60405180910390a350565b600073ffffffffffffffffffffffffffffffffffffffff168473ffffffffffffffffffffffffffffffffffffffff1614156131e5576040517f08c379a00000000000000000000000000000000000000000000000000000000081526004016131dc906153f6565b60405180910390fd5b60006131ef611e30565b905061320f818787613200886136eb565b613209886136eb565b876134ee565b60006001600086815260200190815260200160002060008873ffffffffffffffffffffffffffffffffffffffff1673ffffffffffffffffffffffffffffffffffffffff168152602001908152602001600020549050838110156132a7576040517f08c379a000000000000000000000000000000000000000000000000000000000815260040161329e90615488565b60405180910390fd5b8381036001600087815260200190815260200160002060008973ffffffffffffffffffffffffffffffffffffffff1673ffffffffffffffffffffffffffffffffffffffff16815260200190815260200160002081905550836001600087815260200190815260200160002060008873ffffffffffffffffffffffffffffffffffffffff1673ffffffffffffffffffffffffffffffffffffffff168152602001908152602001600020600082825461335e9190614cfd565b925050819055508573ffffffffffffffffffffffffffffffffffffffff168773ffffffffffffffffffffffffffffffffffffffff168373ffffffffffffffffffffffffffffffffffffffff167fc3d58168c5ae7397731d063d5bbf3d657854427343f4c083240f7aacaa2d0f6288886040516133db92919061566f565b60405180910390a46133f1828888888888613765565b50505050505050565b8047101561343d576040517f08c379a00000000000000000000000000000000000000000000000000000000081526004016134349061594c565b60405180910390fd5b60008273ffffffffffffffffffffffffffffffffffffffff16826040516134639061599d565b60006040518083038185875af1925050503d80600081146134a0576040519150601f19603f3d011682016040523d82523d6000602084013e6134a5565b606091505b50509050806134e9576040517f08c379a00000000000000000000000000000000000000000000000000000000081526004016134e090615a24565b60405180910390fd5b505050565b6134fc868686868686611c21565b505050505050565b6135238473ffffffffffffffffffffffffffffffffffffffff16611d9b565b156136e3578373ffffffffffffffffffffffffffffffffffffffff1663bc197c8187878686866040518663ffffffff1660e01b8152600401613569959493929190615a99565b602060405180830381600087803b15801561358357600080fd5b505af19250505080156135b457506040513d601f19601f820116820180604052508101906135b19190615b16565b60015b61365a576135c0615b50565b806308c379a0141561361d57506135d5615b72565b806135e0575061361f565b806040517f08c379a00000000000000000000000000000000000000000000000000000000081526004016136149190613dd3565b60405180910390fd5b505b6040517f08c379a000000000000000000000000000000000000000000000000000000000815260040161365190615c7a565b60405180910390fd5b63bc197c8160e01b7bffffffffffffffffffffffffffffffffffffffffffffffffffffffff1916817bffffffffffffffffffffffffffffffffffffffffffffffffffffffff1916146136e1576040517f08c379a00000000000000000000000000000000000000000000000000000000081526004016136d890615d0c565b60405180910390fd5b505b505050505050565b60606000600167ffffffffffffffff81111561370a57613709613bd7565b5b6040519080825280602002602001820160405280156137385781602001602082028036833780820191505090505b50905082816000815181106137505761374f614c56565b5b60200260200101818152505080915050919050565b6137848473ffffffffffffffffffffffffffffffffffffffff16611d9b565b15613944578373ffffffffffffffffffffffffffffffffffffffff1663f23a6e6187878686866040518663ffffffff1660e01b81526004016137ca959493929190615d2c565b602060405180830381600087803b1580156137e457600080fd5b505af192505050801561381557506040513d601f19601f820116820180604052508101906138129190615b16565b60015b6138bb57613821615b50565b806308c379a0141561387e5750613836615b72565b806138415750613880565b806040517f08c379a00000000000000000000000000000000000000000000000000000000081526004016138759190613dd3565b60405180910390fd5b505b6040517f08c379a00000000000000000000000000000000000000000000000000000000081526004016138b290615c7a565b60405180910390fd5b63f23a6e6160e01b7bffffffffffffffffffffffffffffffffffffffffffffffffffffffff1916817bffffffffffffffffffffffffffffffffffffffffffffffffffffffff191614613942576040517f08c379a000000000000000000000000000000000000000000000000000000000815260040161393990615d0c565b60405180910390fd5b505b505050505050565b828054613958906147cc565b90600052602060002090601f01602090048101928261397a57600085556139c1565b82601f1061399357805160ff19168380011785556139c1565b828001600101855582156139c1579182015b828111156139c05782518255916020019190600101906139a5565b5b5090506139ce91906139d2565b5090565b5b808211156139eb5760008160009055506001016139d3565b5090565b6000604051905090565b600080fd5b600080fd5b600073ffffffffffffffffffffffffffffffffffffffff82169050919050565b6000613a2e82613a03565b9050919050565b613a3e81613a23565b8114613a4957600080fd5b50565b600081359050613a5b81613a35565b92915050565b6000819050919050565b613a7481613a61565b8114613a7f57600080fd5b50565b600081359050613a9181613a6b565b92915050565b60008060408385031215613aae57613aad6139f9565b5b6000613abc85828601613a4c565b9250506020613acd85828601613a82565b9150509250929050565b613ae081613a61565b82525050565b6000602082019050613afb6000830184613ad7565b92915050565b60007fffffffff0000000000000000000000000000000000000000000000000000000082169050919050565b613b3681613b01565b8114613b4157600080fd5b50565b600081359050613b5381613b2d565b92915050565b600060208284031215613b6f57613b6e6139f9565b5b6000613b7d84828501613b44565b91505092915050565b60008115159050919050565b613b9b81613b86565b82525050565b6000602082019050613bb66000830184613b92565b92915050565b600080fd5b600080fd5b6000601f19601f8301169050919050565b7f4e487b7100000000000000000000000000000000000000000000000000000000600052604160045260246000fd5b613c0f82613bc6565b810181811067ffffffffffffffff82111715613c2e57613c2d613bd7565b5b80604052505050565b6000613c416139ef565b9050613c4d8282613c06565b919050565b600067ffffffffffffffff821115613c6d57613c6c613bd7565b5b613c7682613bc6565b9050602081019050919050565b82818337600083830152505050565b6000613ca5613ca084613c52565b613c37565b905082815260208101848484011115613cc157613cc0613bc1565b5b613ccc848285613c83565b509392505050565b600082601f830112613ce957613ce8613bbc565b5b8135613cf9848260208601613c92565b91505092915050565b600060208284031215613d1857613d176139f9565b5b600082013567ffffffffffffffff811115613d3657613d356139fe565b5b613d4284828501613cd4565b91505092915050565b600081519050919050565b600082825260208201905092915050565b60005b83811015613d85578082015181840152602081019050613d6a565b83811115613d94576000848401525b50505050565b6000613da582613d4b565b613daf8185613d56565b9350613dbf818560208601613d67565b613dc881613bc6565b840191505092915050565b60006020820190508181036000830152613ded8184613d9a565b905092915050565b600060208284031215613e0b57613e0a6139f9565b5b6000613e1984828501613a82565b91505092915050565b6000613e2d82613a03565b9050919050565b613e3d81613e22565b8114613e4857600080fd5b50565b600081359050613e5a81613e34565b92915050565b600060208284031215613e7657613e756139f9565b5b6000613e8484828501613e4b565b91505092915050565b600067ffffffffffffffff821115613ea857613ea7613bd7565b5b602082029050602081019050919050565b600080fd5b6000613ed1613ecc84613e8d565b613c37565b90508083825260208201905060208402830185811115613ef457613ef3613eb9565b5b835b81811015613f1d5780613f098882613a82565b845260208401935050602081019050613ef6565b5050509392505050565b600082601f830112613f3c57613f3b613bbc565b5b8135613f4c848260208601613ebe565b91505092915050565b600067ffffffffffffffff821115613f7057613f6f613bd7565b5b613f7982613bc6565b9050602081019050919050565b6000613f99613f9484613f55565b613c37565b905082815260208101848484011115613fb557613fb4613bc1565b5b613fc0848285613c83565b509392505050565b600082601f830112613fdd57613fdc613bbc565b5b8135613fed848260208601613f86565b91505092915050565b600080600080600060a08688031215614012576140116139f9565b5b600061402088828901613a4c565b955050602061403188828901613a4c565b945050604086013567ffffffffffffffff811115614052576140516139fe565b5b61405e88828901613f27565b935050606086013567ffffffffffffffff81111561407f5761407e6139fe565b5b61408b88828901613f27565b925050608086013567ffffffffffffffff8111156140ac576140ab6139fe565b5b6140b888828901613fc8565b9150509295509295909350565b600080604083850312156140dc576140db6139f9565b5b60006140ea85828601613a82565b92505060206140fb85828601613a82565b9150509250929050565b600067ffffffffffffffff8211156141205761411f613bd7565b5b602082029050602081019050919050565b600061414461413f84614105565b613c37565b9050808382526020820190506020840283018581111561416757614166613eb9565b5b835b81811015614190578061417c8882613a4c565b845260208401935050602081019050614169565b5050509392505050565b600082601f8301126141af576141ae613bbc565b5b81356141bf848260208601614131565b91505092915050565b600080604083850312156141df576141de6139f9565b5b600083013567ffffffffffffffff8111156141fd576141fc6139fe565b5b6142098582860161419a565b925050602083013567ffffffffffffffff81111561422a576142296139fe565b5b61423685828601613f27565b9150509250929050565b600081519050919050565b600082825260208201905092915050565b6000819050602082019050919050565b61427581613a61565b82525050565b6000614287838361426c565b60208301905092915050565b6000602082019050919050565b60006142ab82614240565b6142b5818561424b565b93506142c08361425c565b8060005b838110156142f15781516142d8888261427b565b97506142e383614293565b9250506001810190506142c4565b5085935050505092915050565b6000602082019050818103600083015261431881846142a0565b905092915050565b600080600060608486031215614339576143386139f9565b5b600061434786828701613a4c565b935050602084013567ffffffffffffffff811115614368576143676139fe565b5b61437486828701613f27565b925050604084013567ffffffffffffffff811115614395576143946139fe565b5b6143a186828701613f27565b9150509250925092565b6143b481613a23565b82525050565b60006020820190506143cf60008301846143ab565b92915050565b600060ff82169050919050565b6143eb816143d5565b81146143f657600080fd5b50565b600081359050614408816143e2565b92915050565b600080600060608486031215614427576144266139f9565b5b6000614435868287016143f9565b9350506020614446868287016143f9565b9250506040614457868287016143f9565b9150509250925092565b61446a81613b86565b811461447557600080fd5b50565b60008135905061448781614461565b92915050565b600080604083850312156144a4576144a36139f9565b5b60006144b285828601613a4c565b92505060206144c385828601614478565b9150509250929050565b600080600080600060a086880312156144e9576144e86139f9565b5b60006144f788828901613a82565b955050602061450888828901613a82565b945050604061451988828901613a82565b935050606061452a88828901613a82565b925050608061453b88828901613a82565b9150509295509295909350565b60006020828403121561455e5761455d6139f9565b5b600061456c84828501613a4c565b91505092915050565b6000806040838503121561458c5761458b6139f9565b5b600061459a85828601613a4c565b92505060206145ab85828601613a4c565b9150509250929050565b600080600080600060a086880312156145d1576145d06139f9565b5b60006145df88828901613a4c565b95505060206145f088828901613a4c565b945050604061460188828901613a82565b935050606061461288828901613a82565b925050608086013567ffffffffffffffff811115614633576146326139fe565b5b61463f88828901613fc8565b9150509295509295909350565b600080600060608486031215614665576146646139f9565b5b600061467386828701613a4c565b935050602061468486828701613a82565b925050604061469586828701613a82565b9150509250925092565b7f455243313135353a2062616c616e636520717565727920666f7220746865207a60008201527f65726f2061646472657373000000000000000000000000000000000000000000602082015250565b60006146fb602b83613d56565b91506147068261469f565b604082019050919050565b6000602082019050818103600083015261472a816146ee565b9050919050565b7f4f776e61626c653a2063616c6c6572206973206e6f7420746865206f776e6572600082015250565b6000614767602083613d56565b915061477282614731565b602082019050919050565b600060208201905081810360008301526147968161475a565b9050919050565b7f4e487b7100000000000000000000000000000000000000000000000000000000600052602260045260246000fd5b600060028204905060018216806147e457607f821691505b602082108114156147f8576147f761479d565b5b50919050565b7f5552493a206e6f6e6578697374656e7420746f6b656e00000000000000000000600082015250565b6000614834601683613d56565b915061483f826147fe565b602082019050919050565b6000602082019050818103600083015261486381614827565b9050919050565b600081905092915050565b600061488082613d4b565b61488a818561486a565b935061489a818560208601613d67565b80840191505092915050565b60006148b28285614875565b91506148be8284614875565b91508190509392505050565b7f52656c656173653a206e6f207065726d697373696f6e00000000000000000000600082015250565b6000614900601683613d56565b915061490b826148ca565b602082019050919050565b6000602082019050818103600083015261492f816148f3565b9050919050565b7f455243313135353a207472616e736665722063616c6c6572206973206e6f742060008201527f6f776e6572206e6f7220617070726f7665640000000000000000000000000000602082015250565b6000614992603283613d56565b915061499d82614936565b604082019050919050565b600060208201905081810360008301526149c181614985565b9050919050565b7f5061757361626c653a2070617573656400000000000000000000000000000000600082015250565b60006149fe601083613d56565b9150614a09826149c8565b602082019050919050565b60006020820190508181036000830152614a2d816149f1565b9050919050565b7f4275726e43617264466f724f746865723a20616d6f756e74206e6f7420616c6c60008201527f6f77656400000000000000000000000000000000000000000000000000000000602082015250565b6000614a90602483613d56565b9150614a9b82614a34565b604082019050919050565b60006020820190508181036000830152614abf81614a83565b9050919050565b7f4275726e43617264466f724f746865723a2077696e646f7720636c6f73656400600082015250565b6000614afc601f83613d56565b9150614b0782614ac6565b602082019050919050565b60006020820190508181036000830152614b2b81614aef565b9050919050565b7f4275726e43617264466f724f746865723a20636172642063616e6e6f7420626560008201527f206275726e656400000000000000000000000000000000000000000000000000602082015250565b6000614b8e602783613d56565b9150614b9982614b32565b604082019050919050565b60006020820190508181036000830152614bbd81614b81565b9050919050565b7f455243313135353a206163636f756e747320616e6420696473206c656e67746860008201527f206d69736d617463680000000000000000000000000000000000000000000000602082015250565b6000614c20602983613d56565b9150614c2b82614bc4565b604082019050919050565b60006020820190508181036000830152614c4f81614c13565b9050919050565b7f4e487b7100000000000000000000000000000000000000000000000000000000600052603260045260246000fd5b7f4e487b7100000000000000000000000000000000000000000000000000000000600052601160045260246000fd5b6000614cbf82613a61565b91507fffffffffffffffffffffffffffffffffffffffffffffffffffffffffffffffff821415614cf257614cf1614c85565b5b600182019050919050565b6000614d0882613a61565b9150614d1383613a61565b9250827fffffffffffffffffffffffffffffffffffffffffffffffffffffffffffffffff03821115614d4857614d47614c85565b5b828201905092915050565b7f4275726e3a206e6f7420616c6c6f77656420647572696e672073616c65000000600082015250565b6000614d89601d83613d56565b9150614d9482614d53565b602082019050919050565b60006020820190508181036000830152614db881614d7c565b9050919050565b7f455243313135353a2063616c6c6572206973206e6f74206f776e6572206e6f7260008201527f20617070726f7665640000000000000000000000000000000000000000000000602082015250565b6000614e1b602983613d56565b9150614e2682614dbf565b604082019050919050565b60006020820190508181036000830152614e4a81614e0e565b9050919050565b7f77696e646f7720636f6d62696e6174696f6e206e6f7420616c6c6f7765640000600082015250565b6000614e87601e83613d56565b9150614e9282614e51565b602082019050919050565b60006020820190508181036000830152614eb681614e7a565b9050919050565b7f6d617820747820616d6f756e7420657863656564656400000000000000000000600082015250565b6000614ef3601683613d56565b9150614efe82614ebd565b602082019050919050565b60006020820190508181036000830152614f2281614ee6565b9050919050565b7f43616e6e6f7420676f2062656c6f772073746167652031000000000000000000600082015250565b6000614f5f601783613d56565b9150614f6a82614f29565b602082019050919050565b60006020820190508181036000830152614f8e81614f52565b9050919050565b6000614fa082613a61565b9150614fab83613a61565b925082821015614fbe57614fbd614c85565b5b828203905092915050565b7f4f776e61626c653a206e6577206f776e657220697320746865207a65726f206160008201527f6464726573730000000000000000000000000000000000000000000000000000602082015250565b6000615025602683613d56565b915061503082614fc9565b604082019050919050565b6000602082019050818103600083015261505481615018565b9050919050565b7f4e487b7100000000000000000000000000000000000000000000000000000000600052601260045260246000fd5b600061509582613a61565b91506150a083613a61565b9250826150b0576150af61505b565b5b828204905092915050565b60006150c682613a61565b91506150d183613a61565b9250826150e1576150e061505b565b5b828206905092915050565b7f5061796d656e7453706c69747465723a206163636f756e7420686173206e6f2060008201527f7368617265730000000000000000000000000000000000000000000000000000602082015250565b6000615148602683613d56565b9150615153826150ec565b604082019050919050565b600060208201905081810360008301526151778161513b565b9050919050565b600061518982613a61565b915061519483613a61565b9250817fffffffffffffffffffffffffffffffffffffffffffffffffffffffffffffffff04831182151516156151cd576151cc614c85565b5b828202905092915050565b7f5061796d656e7453706c69747465723a206163636f756e74206973206e6f742060008201527f647565207061796d656e74000000000000000000000000000000000000000000602082015250565b6000615234602b83613d56565b915061523f826151d8565b604082019050919050565b6000602082019050818103600083015261526381615227565b9050919050565b6000819050919050565b600061528f61528a61528584613a03565b61526a565b613a03565b9050919050565b60006152a182615274565b9050919050565b60006152b382615296565b9050919050565b6152c3816152a8565b82525050565b60006040820190506152de60008301856152ba565b6152eb6020830184613ad7565b9392505050565b7f455243313135353a2069647320616e6420616d6f756e7473206c656e6774682060008201527f6d69736d61746368000000000000000000000000000000000000000000000000602082015250565b600061534e602883613d56565b9150615359826152f2565b604082019050919050565b6000602082019050818103600083015261537d81615341565b9050919050565b7f455243313135353a207472616e7366657220746f20746865207a65726f20616460008201527f6472657373000000000000000000000000000000000000000000000000000000602082015250565b60006153e0602583613d56565b91506153eb82615384565b604082019050919050565b6000602082019050818103600083015261540f816153d3565b9050919050565b7f455243313135353a20696e73756666696369656e742062616c616e636520666f60008201527f72207472616e7366657200000000000000000000000000000000000000000000602082015250565b6000615472602a83613d56565b915061547d82615416565b604082019050919050565b600060208201905081810360008301526154a181615465565b9050919050565b600060408201905081810360008301526154c281856142a0565b905081810360208301526154d681846142a0565b90509392505050565b7f5061757361626c653a206e6f7420706175736564000000000000000000000000600082015250565b6000615515601483613d56565b9150615520826154df565b602082019050919050565b6000602082019050818103600083015261554481615508565b9050919050565b7f455243313135353a206275726e2066726f6d20746865207a65726f206164647260008201527f6573730000000000000000000000000000000000000000000000000000000000602082015250565b60006155a7602383613d56565b91506155b28261554b565b604082019050919050565b600060208201905081810360008301526155d68161559a565b9050919050565b7f455243313135353a206275726e20616d6f756e7420657863656564732062616c60008201527f616e636500000000000000000000000000000000000000000000000000000000602082015250565b6000615639602483613d56565b9150615644826155dd565b604082019050919050565b600060208201905081810360008301526156688161562c565b9050919050565b60006040820190506156846000830185613ad7565b6156916020830184613ad7565b9392505050565b7f455243313135353a206d696e7420746f20746865207a65726f2061646472657360008201527f7300000000000000000000000000000000000000000000000000000000000000602082015250565b60006156f4602183613d56565b91506156ff82615698565b604082019050919050565b60006020820190508181036000830152615723816156e7565b9050919050565b7f455243313135353a2073657474696e6720617070726f76616c2073746174757360008201527f20666f722073656c660000000000000000000000000000000000000000000000602082015250565b6000615786602983613d56565b91506157918261572a565b604082019050919050565b600060208201905081810360008301526157b581615779565b9050919050565b7f50757263686173653a20616d6f756e742070726f686962697465640000000000600082015250565b60006157f2601b83613d56565b91506157fd826157bc565b602082019050919050565b60006020820190508181036000830152615821816157e5565b9050919050565b7f50757263686173653a204d617820737570706c79207265616368656400000000600082015250565b600061585e601c83613d56565b915061586982615828565b602082019050919050565b6000602082019050818103600083015261588d81615851565b9050919050565b7f50757263686173653a20496e636f7272656374207061796d656e740000000000600082015250565b60006158ca601b83613d56565b91506158d582615894565b602082019050919050565b600060208201905081810360008301526158f9816158bd565b9050919050565b7f416464726573733a20696e73756666696369656e742062616c616e6365000000600082015250565b6000615936601d83613d56565b915061594182615900565b602082019050919050565b6000602082019050818103600083015261596581615929565b9050919050565b600081905092915050565b50565b600061598760008361596c565b915061599282615977565b600082019050919050565b60006159a88261597a565b9150819050919050565b7f416464726573733a20756e61626c6520746f2073656e642076616c75652c207260008201527f6563697069656e74206d61792068617665207265766572746564000000000000602082015250565b6000615a0e603a83613d56565b9150615a19826159b2565b604082019050919050565b60006020820190508181036000830152615a3d81615a01565b9050919050565b600081519050919050565b600082825260208201905092915050565b6000615a6b82615a44565b615a758185615a4f565b9350615a85818560208601613d67565b615a8e81613bc6565b840191505092915050565b600060a082019050615aae60008301886143ab565b615abb60208301876143ab565b8181036040830152615acd81866142a0565b90508181036060830152615ae181856142a0565b90508181036080830152615af58184615a60565b90509695505050505050565b600081519050615b1081613b2d565b92915050565b600060208284031215615b2c57615b2b6139f9565b5b6000615b3a84828501615b01565b91505092915050565b60008160e01c9050919050565b600060033d1115615b6f5760046000803e615b6c600051615b43565b90505b90565b600060443d1015615b8257615c05565b615b8a6139ef565b60043d036004823e80513d602482011167ffffffffffffffff82111715615bb2575050615c05565b808201805167ffffffffffffffff811115615bd05750505050615c05565b80602083010160043d038501811115615bed575050505050615c05565b615bfc82602001850186613c06565b82955050505050505b90565b7f455243313135353a207472616e7366657220746f206e6f6e204552433131353560008201527f526563656976657220696d706c656d656e746572000000000000000000000000602082015250565b6000615c64603483613d56565b9150615c6f82615c08565b604082019050919050565b60006020820190508181036000830152615c9381615c57565b9050919050565b7f455243313135353a204552433131353552656365697665722072656a6563746560008201527f6420746f6b656e73000000000000000000000000000000000000000000000000602082015250565b6000615cf6602883613d56565b9150615d0182615c9a565b604082019050919050565b60006020820190508181036000830152615d2581615ce9565b9050919050565b600060a082019050615d4160008301886143ab565b615d4e60208301876143ab565b615d5b6040830186613ad7565b615d686060830185613ad7565b8181036080830152615d7a8184615a60565b9050969550505050505056fea2646970667358221220663a31b0cd1eafaa4524ce554981e54c0ccd301092b6f86dead2aa67532ed88164736f6c63430008090033",
  "linkReferences": {},
  "deployedLinkReferences": {}
}